:020000040800F2
:100000001859002081020008B3410008553B000840
:10001000B1410008CB0F0008B554000800000000F3
:10002000000000000000000000000000C101000806
:10003000D7130008000000001D020008314B000823
:100040009B0200089B0200089B0200089B0200081C
:100050009B0200089B0200089B0200089B0200080C
:100060009B0200089B0200089B0200089B020008FC
:10007000D91200089B020008E51200089B02000844
:100080009B020008F11200089B0200089B02000876
:10009000CD0F0008D90F00089B0200089B02000842
:1000A0009B0200089B0200089B0200089B020008BC
:1000B0009B0200089B0200089B0200089B020008AC
:1000C0009B0200089B0200089B0200089B0200089C
:1000D0009B020008D95300089B0200089B020008FD
:1000E0009B0200089B0200089B0200089B0200087C
:1000F0009B0200089B0200089B0200089B0200086C
:100100009B0200089B0200089B0200089B0200085B
:100110009B0200089B020008014C00080D4C0008DF
:100120009B0200089B020008FD1200089B020008C9
:100130009B0200089B0200089B0200089B0200082B
:10014000E50F0008F10F00089B0200089B02000861
:100150009B0200089B0200089B020008A9540008AB
:100160009B0200089B0200089B0200089B020008FB
:100170009B0200089B0200089B0200080000000090
:100180009B0200089B0200080D4F0008214F000849
:100190009B0200089B0200089B0200089B020008CB
:1001A00000000000000000009B020008DFF80CD0F7
:1001B00000F0F4FB00480047AD8300081859002008
:1001C0002C4B19680868B0E8F04F80F30988BFF33A
:1001D0006F8F4FF0000080F311887047000000001F
:1001E00008480068006880F308884FF0000080F33A
:1001F000148862B661B6BFF34F8FBFF36F8F00DF15
:1002000000BF00BF08ED00E0DFF80C00016841F41A
:1002100070010160704700BF88ED00E0EFF30980D6
:10022000BFF36F8F134B1A681EF0100F08BF20ED3D
:10023000108A20E9F04F106009B44FF0500080F3AD
:100240001188BFF34F8FBFF36F8F09F00BF84FF09A
:10025000000080F3118809BC19680868B0E8F04F05
:100260001EF0100F08BFB0EC108A80F30988BFF3AE
:100270006F8F704704010020EFF305807047000086
:100280000648804706480047FEE7FEE7FEE7FEE730
:10029000FEE7FEE7FEE7FEE7FEE7FEE7F14B0008BC
:1002A000AD0100082DE9F05F0546002092469B460F
:1002B00088460646814640241BE02846414647467C
:1002C000224600F04CFA53465A46C01A914110D3C8
:1002D00011461846224600F033FA2D1A67EB010842
:1002E0004F4622460120002100F02AFA17EB0009B0
:1002F0004E41201EA4F10104DFDC484631462A4667
:100300004346BDE8F09F40EA01039B0703D009E0A4
:1003100008C9121F08C0042AFAD203E011F8013BF1
:1003200000F8013B521EF9D27047D2B201E000F84A
:10033000012B491EFBD270470022F6E710B5134689
:100340000A4604461946FFF7F0FF204610BD2DE986
:10035000FE4F804681EA0300C00F0C46009021F05A
:10036000004123F00045B8EB0200A94105D2404608
:10037000214690461C460B46024623F0004010439F
:1003800047D0270DC7F30A00C3F30A510290401A61
:10039000019040286BDAC3F3130040F4801B0098EF
:1003A000924620B10023D2EB030A63EB0B0B0198BA
:1003B0005946C0F14002504600F0C2F906460D46CB
:1003C00050465946019A00F0DAF910EB08006141F5
:1003D000002487EA115284EAE7731A4340D0009A56
:1003E00062B3019A012A4FEA075215DC001B61EB48
:1003F00002014FF0004202EA0752CDE90042001C20
:1004000041F5801132462B4600F011FA03B0BDE8E9
:10041000F08F40462146F9E7001B61EB0201001C0A
:1004200041F5801300185B412018A2F5001747EB37
:10043000030140EAD570B6196D4111E06D084FEA2D
:10044000360645EAC0754FEA0752001B61EB020110
:10045000001C41F5801149084FEA30000019514154
:1004600032462B4603B0BDE8F04F00F0D1B90098FA
:10047000012240000023D0EB020263EBE0730098FE
:1004800021464FEAE074B8EB000061EB0401E9E7B4
:1004900083F000435BE781F0004158E72DE9FE4F10
:1004A00081EA030404F0004421F0004100944FF07D
:1004B000000B23F0004350EA01045ED052EA03042B
:1004C0005BD0C3F30A54C1F30A552C44A4F2F334AD
:1004D0000194A0FB0254C1F3130141F48011C3F352
:1004E000130343F4801301FB024400FB034E840A10
:1004F000970A44EA815447EA8357A4FB07680295A8
:100500008D0A05FB07854FEA932C04FB0C54270545
:10051000029D4FEA065847EA1637B5EB08056EEB21
:10052000070C870E920E47EA811742EA8312A7FB57
:100530000201B6EB0B0164EB00042B0D43EA0C3314
:100540005E1844EB1C50DA465146E7FB0201C5F346
:1005500013044FEA0B3343EA14534FEA0432019C6D
:1005600043EA0603A4F10C040294009CCDE900B414
:1005700000F05DF903B0BDE8F08F00200146F9E717
:100580002DE9F04D81EA030404F0004B21F0004511
:1005900014464FF0000A23F0004150EA050220D033
:1005A00054EA01021DD0C5F30A570246C5F31303EE
:1005B000C1F31300C1F30A5640F4801543F48013CD
:1005C000A7EB0608101BD64608F2FD3873EB0500B2
:1005D00002D308F1010801E092185B41B8F1000F65
:1005E00003DA00200146BDE8F08D00204FF48011B1
:1005F000064684460EE0171B73EB050705D3121B56
:1006000063EB050306434CEA010C49084FEA30004E
:1006100092185B4150EA0107EDD152EA030012D073
:1006200082EA040083EA0501084305D0101BAB41B0
:1006300006D20122002306E000224FF0004302E030
:100640006FF0010253101AEB06004CEB085110EB4F
:100650000A0041EB0B01BDE8F04D00F0D9B80EB532
:10066000C10F80EAE0700844CA07002140F233431A
:100670008DE80E000A460B4600F0D9F803B000BD25
:1006800000F0004230F000400AD0C10D01F5607169
:10069000C0F3160042EA0151C208400711437047F7
:1006A000002001467047000030B5041E71F10004BF
:1006B00004DB4FF00044404264EB0101141E73F16F
:1006C000000405DB1C464FF00043524263EB040379
:1006D0008B4208BF824230BD30B5041E71F1000468
:1006E00004DB4FF00044404264EB0101141E73F13F
:1006F000000405DB1C464FF00043524263EB040349
:10070000994208BF904230BD01F0004330B421F05F
:10071000004150EA010206D00A0DA2F56072C1F351
:100720001301002A02DC30BC00207047440F44EA69
:10073000C104C100E01830BC00EBC25000F031B879
:10074000202A04DB203A00FA02F100207047914091
:10075000C2F1200320FA03F3194390407047202A86
:1007600004DB203A21FA02F00021704721FA02F35B
:10077000D040C2F120029140084319467047202A18
:1007800006DBCB17203A41FA02F043EAE07306E0B9
:1007900041FA02F3D040C2F12002914008431946C9
:1007A00070470029A8BF7047401C490008BF20F0CF
:1007B0000100704710B4B0FA80FC00FA0CF050EA67
:1007C000010404BF10BC704749B1CCF1200421FAE8
:1007D00004F411FA0CF118BF012121430843A3EBE3
:1007E0000C01CB1D4FEA00614FEA102042BF0020F0
:1007F00010BC704700EBC35010440029A4BF10BCCC
:100800007047401C490008BF20F0010010BC704731
:1008100010B5141E73F1000408DA401C41F1000108
:1008200092185B411A4301D120F0010010BD2DE95F
:10083000F04D92469B4611B1B1FA81F202E0B0FA56
:1008400080F220329046FFF77BFF04460F4640EAD5
:100850000A0041EA0B0153465A46084313D0114699
:1008600053EA010019D0C8F140025046FFF777FF64
:1008700005460E46504659464246FFF761FF08437B
:1008800005D0012004E020463946BDE8F08D002067
:10089000054346EAE0762C4337430A986305E40AA9
:1008A000A0EB08000022FD0A44EA47540A3002D5B2
:1008B00000200146E9E7010510196941DDE9084515
:1008C00000196941BDE8F04DA2E770B521F0004381
:1008D00003430CD0C1F30A550024D5EB040564EBA7
:1008E0000403D617AD1AB34102DB0020014670BDE8
:1008F000201841EB025170BD2DE9F04D00231A463E
:100900001B1A8A4103DB00200146BDE8F08DC1F3CC
:100910000A52C1F3130141F480154FF0000BD107C7
:1009200002D100186D41521E0027044640F2FF110B
:10093000384601EB620A3E468046024600204FF4EC
:100940008011FFF70CFFC2197141BB1846EB010083
:10095000B4EB030C75EB000C04D3E41A65EB000553
:1009600017460E46241908F101006D4180463428CF
:10097000E3DDF91946EB0600091BA84103D24FF04D
:10098000FF32134601E0002213461BEB070046EB43
:100990000A51BDE8F04DFFF73BBF0000064C074D84
:1009A00006E0E06840F0010394E80700984710343F
:1009B000AC42F6D3FFF7FEFBD4990008F499000887
:1009C0000EB540F2334102910021CDE900110A46F3
:1009D0000B46FFF72CFF03B000BD70B5C1F30A5200
:1009E00001F000450024C1F3130140F2FF3341F44C
:1009F00080119A4201DA002070BD40F233439A42DE
:100A0000A2F2334203DC5242FFF7A9FE00E090401D
:100A10002C43F1D0404270BD30B58C1810F8012B3A
:100A200012F00F0301D110F8013B120906D110F8A2
:100A3000012B03E010F8015B01F8015B5B1EF9D1AB
:100A400001E001F8013B521EFBD1A142E6D3002098
:100A500030BD00002DE9F04104462DED088BB14E6C
:100A600096F8B00501287CD194ED000A94ED029A25
:100A70009FEDADAA09EE0A0A10EE100AFFF700FE7C
:100A800094ED010A41EC180B09EE4A0A10EE100A27
:100A9000FFF7F6FD41EC100BB0EE481AF0EE681AC5
:100AA00005F04EF89FEDA18B51EC100B53EC182B79
:100AB000FFF766FD9FED9F9B53EC192BFFF7EEFCB4
:100AC00006F5C265C5E9000194ED000AD4ED02AA5D
:100AD0000AEECA0A10EE100AFFF7D2FD94ED010AE1
:100AE00041EC1B0B0AEECA0A10EE100AFFF7C8FD14
:100AF00041EC100BB0EE4B1AF0EE6B1A05F020F83B
:100B000053EC182B51EC100BFFF73AFD53EC192B5B
:100B1000FFF7C4FCC5E9020194ED000AD4ED02AA76
:100B20000AEECA0A10EE100AFFF7AAFD94ED010AB8
:100B300041EC1B0B0AEE8A0A10EE100AFFF7A0FD2B
:100B400041EC100BB0EE4B1AF0EE6B1A04F0F8FF0C
:100B500053EC182B51EC100BFFF712FD53EC192B33
:100B600000E0CAE0FFF79AFCC5E9040194ED000A31
:100B7000D4ED02AA0AEE8A0A10EE100AFFF780FDF1
:100B800094ED010A41EC1B0B0AEE8A0A10EE100AE2
:100B9000FFF776FD41EC100BB0EE4B1AF0EE6B1A3E
:100BA00004F0CEFF53EC182B51EC100BFFF7E8FCD0
:100BB00053EC192BFFF772FCC5E9060195ED000B0C
:100BC0009FED5E8B51EC100B53EC182BFFF766FC7E
:100BD000FFF79AFD00EE100ADFED5A0A30EE200A08
:100BE0009FED599AF0EE490A00F0E0F9A5F504747A
:100BF00084ED730A95ED021B53EC182B51EC110B8D
:100C0000FFF74CFCFFF780FD00EE100ADFED4F0A06
:100C100030EE200AF0EE490A00F0C8F984ED740ABB
:100C200095ED041B53EC182B51EC110BFFF736FC20
:100C3000FFF76AFD00EE100ADFED450A30EE200AEC
:100C4000F0EE490A00F0B2F984ED750A95ED061B45
:100C500053EC182B51EC110BFFF720FCFFF754FD60
:100C600000EE100ADFED3B0A30EE200AF0EE490AF2
:100C700000F09CF984ED760A304603F011FFD6F8B7
:100C8000FC05A4F5826728B9D6F8000610B9D6F895
:100C90000406B0B3002006EB800101F5806191ED00
:100CA000730A07EB800181ED000A401C0428F2DB87
:100CB00000249FED298B06EB840505F5806507EB85
:100CC000840895ED730AD8ED000A30EE600A10EE44
:100CD000100AFFF7D5FC41EC100B05F08DF853EC32
:100CE000182B51EC100BFFF7DFFC03D298ED000A34
:100CF00085ED730A641C042CDDDBBDEC088BBDE8BC
:100D0000F081FFE7002007EB800191ED000A06EB80
:100D1000800101F5806181ED730A401C0428F2DB3B
:100D2000C6E70000280A0020F4FD343F0000004020
:100D3000FB21094000000000008066400000000028
:100D400000C0364000A0FD4500F8FF450040BA4510
:100D500000C0AC440000C343000000000000364067
:100D600070B504462DED068B94ED000AD4ED020A11
:100D70009FED8A8A00EE880A10EE100AFFF780FCC9
:100D800041EC100B9FED86ABB0EE4A1AF0EE6A1AFA
:100D900005F03EF8B0EE409AF0EE609A94ED010A4C
:100DA000D4ED020A00EEC80A10EE100AFFF768FC44
:100DB00041EC100BB0EE4A1AF0EE6A1A05F028F872
:100DC000B0EE401AF0EE601A53EC192B51EC110BF7
:100DD000FFF7BDFA41EC100B05F0A6FE724EB0EE27
:100DE000409AF0EE609A96F90000FFF738FC53EC59
:100DF000192BFFF753FBFFF787FC06F11C05286052
:100E000094ED000AD4ED020A00EEC80A10EE100AB2
:100E1000FFF736FC41EC100BB0EE4A1AF0EE6A1AFE
:100E200004F0F6FFB0EE409AF0EE609A94ED010AFD
:100E3000D4ED020A00EEC80A10EE100AFFF720FCFB
:100E400041EC100BB0EE4A1AF0EE6A1A04F0E0FF23
:100E5000B0EE401AF0EE601A53EC192B51EC110B66
:100E6000FFF775FA41EC100B05F05EFEB0EE409A0C
:100E7000F0EE609A96F90000FFF7F1FB53EC192BA6
:100E8000FFF70CFBFFF740FC686094ED000AD4ED1F
:100E9000020A00EEC80A10EE100AFFF7F1FB41EC5F
:100EA000100BB0EE4A1AF0EE6A1A04F0B1FFB0EE81
:100EB000409AF0EE609A94ED010AD4ED020A00EE39
:100EC000880A10EE100AFFF7DBFB41EC100BB0EEC6
:100ED0004A1AF0EE6A1A04F09BFFB0EE401AF0EEE8
:100EE000601A53EC192B51EC110BFFF730FA41EC5F
:100EF000100B05F019FEB0EE409AF0EE609A96F9EC
:100F00000000FFF7ACFB53EC192BFFF7C7FAFFF714
:100F1000FBFBA86094ED000AD4ED020A00EE880AFB
:100F200010EE100AFFF7ACFB41EC100BB0EE4A1AC2
:100F3000F0EE6A1A04F06CFFB0EE409AF0EE609AA0
:100F400094ED010AD4ED020A00EE880A10EE100AB0
:100F5000FFF796FB41EC100BB0EE4A1AF0EE6A1A5E
:100F600004F056FF53EC192B51EC100BFFF7EFF97F
:100F700041EC100B05F0D8FDB0EE408AF0EE608A2F
:100F800096F90000FFF76BFB53EC182BFFF786FA7E
:100F9000FFF7BAFBE860BDEC068B70BDF4FD343F93
:100FA0000000000000000040E80F0020B4EEE00A5E
:100FB000F1EE10FA01DD30EE600AB5EEC00AF1EE96
:100FC00010FA01D230EE200A7047FEE7014800F027
:100FD000F7BB0000CC040020014800F0F1BB00008A
:100FE000CC040020014800F0EBBB0000F40400201A
:100FF000014800F0E5BB0000F404002038B50E4CB9
:101000004FF400752560082525610025E560A56081
:101010000A4C050A25706070080AA070E170100A79
:1010200020716271180AA071E3716B462246024971
:10103000034800F03FFA38BD700100202E00002068
:10104000CC04002038B50E4C40F2FF152560002579
:10105000A560E560082525610A4C050A25706070C9
:10106000080AA070E170100A20716271180AA0715C
:10107000E3716B4622460249034800F01BFA38BD73
:10108000880100203E000020F404002010B55C4AD6
:1010900010789FED5C1A11460028D1ED030A80EE0E
:1010A000810A07D0C2ED050AFDEEC00AC2ED020AB0
:1010B0000020107082ED030ADFED530A9068B42817
:1010C00052DDA0F1B40109B2D18001EE100AB8EEF0
:1010D000C11AB4EEC10AF1EE10FA0DDD10EE103AAD
:1010E0004A4CA34208DA00EE900AF8EEE00A30EE2D
:1010F000600A82ED030A7BE0B5EEC00AF1EE10FA59
:1011000015DD01EE101AB8EEC11AB4EEC10AF1EE07
:1011100010FA0CD800EE901AF8EEE00A30EEC00A91
:10112000DFED3B0A30EEC00A82ED030A60E001EE1B
:10113000101AB8EEC11AB4EEC10AF1EE10FA57DD7A
:1011400001EE100AB8EEC11AB4EEC10AF1EE10FABF
:101150004ED201EE101AB8EEC11A30EE410A30EE4E
:10116000200A82ED030A43E000F1B40109B2D18004
:1011700001EE100AB8EEC11AB4EEC10AF1EE10FA8F
:1011800011DD01EE101AB8EEC11AB4EEC10AF1EE8B
:1011900010FA08D200EE900AF8EEE00A30EE600A8B
:1011A00082ED030A24E001EE101AB8EEC11AB4EE83
:1011B000C10AF1EE10FA0ADB01EE101AB8EEC11AFC
:1011C00031EE400A30EEC00A82ED030A10E000EE74
:1011D000900AF8EEE00AB4EEE00AF1EE10FA07D851
:1011E00000EE900AF8EEE00A30EE600A82ED030AA3
:1011F00092ED030ABDEEC00A10EE100A00B210BD57
:10120000000000200000C842000034C30000B443C6
:101210000000344330B500EB80030C4830F8134035
:1012200002EB430004814C780D7844EA052422F84F
:1012300013404A790B7942EA03228280CA788B787C
:1012400042EA032242808979817130BDB8010020D1
:1012500010B50446A068C07A012812D003281CD11A
:10126000204602F0A7FF00231A4619461846FFF74A
:10127000C5FE0023BDE810401A4619461846FFF780
:10128000E1BE204602F096FFA068807A022805D0D1
:10129000032802D1012084F8B00510BD002084F895
:1012A000B00510BD10B50446204606F037F92046BB
:1012B00003F064FA074890ED000A04F2B45003F01A
:1012C000E5FA204603F08EFA2046BDE8104006F00D
:1012D000C5B80000D0000020014800F0B1BD0000FA
:1012E000A4070020014800F0ABBD00000408002066
:1012F000014800F0A5BD000064080020014800F08E
:101300009FBD0000C40800200168CAB2103A18232B
:10131000B2FBF3F2064B9B5CC3656FF30901032A32
:1013200002D9091D816500E08165806D704700006C
:10133000EC96000810B5014600208A6A8B694FF0D0
:10134000C074002B0ED0B3F5005F1AD062B3012A2F
:101350002AD0022A28D0032A03D1C96AC90100D59C
:10136000012010BD1AB1012A06D0022AF9D1C96A9A
:10137000C901F6D5012010BDC96AA142FBD10120E7
:1013800010BD52B1012A0AD0022A06D0032AF7D191
:10139000C96AA142F4D1012010BD012010BDC96A63
:1013A000C901FBD5012010BD012010BD30B5046876
:1013B000256825F480252560046863608368402BD8
:1013C00004D0036899600068C26030BD03689A6009
:1013D0000068C16030BD704772B6FEE710B52DEDF4
:1013E000028B00EE900AF8EEE00A30EEC08A18EEAA
:1013F000100AFFF745F941EC100B04F0FDFC9FEDDE
:10140000111B51EC100B53EC112BFFF765F913D2A4
:1014100018EE100AFFF734F941EC100B04F0ECFC65
:101420009FED0A1B51EC100B53EC112BFFF733F817
:10143000FFF76AF908EE100AB0EE480ABDEC028B1D
:1014400010BD0000000000000000B04000000000DF
:101450000000C04030B500EB80030C4830F813406A
:1014600002EB430004814C780D7844EA052422F80D
:1014700013404A790B7942EA03228280CA788B783A
:1014800042EA032242808979817130BDEA0100205D
:1014900090F82020012A07D0022A05D0416A41F4A1
:1014A0008021416201207047006842690A4342611D
:1014B00000207047F0B590F820500468A468012D12
:1014C00007D0022D05D0416A41F4802141620120FC
:1014D000F0BD04F0806504F00066354301D1E500FD
:1014E0005BD5C4F30164022C05D9416A41F40001C3
:1014F00041620120F0BD0125A5401D608B684FF4BD
:10150000C0759BB1CE6805EB041733434E6843EAC0
:10151000C6030668F3514FF4C273076803EB041364
:101520000E69FE50097D012909D00DE00E88CB68B7
:1015300005EB041743EA46530668F351EBE70168ED
:10154000CE5846F48076CE501179D379567941EA57
:10155000036193791B0443EA062319434FF4C676CB
:10156000036806EB041699511178D37841EA0361B8
:10157000937852781B0443EA022211434FF4C47358
:10158000026803EB0413D150006805EB04114258C4
:1015900042F0010242500020F0BD416A41F40011C6
:1015A00041620120F0BD000010B590F82020012A12
:1015B00007D0022A05D0416A41F48021416201200E
:1015C00010BD3C4800F50070026842F00102026064
:1015D000026822F47C52026002684B6A42EA0322EB
:1015E00002600A7D02F01F0301229A40C3699343FF
:1015F000C361A0F50070CB69B3B9D0F80C32934346
:10160000C0F80C328C894B6864F31F434C6900EBC3
:10161000C404C4F840320C890B6864F31F434C695E
:1016200000EBC404C4F84432CB69012B16D1D0F8C6
:101630000C321343C0F80C320C884B6864F31F4320
:101640004C6900EBC404C4F840320C89CB6864F3E5
:101650001F434C6900EBC404C4F844328B697BB16E
:10166000D0F804321343C0F804320B6973B1D0F8D8
:1016700014321343C0F81432096A01290CD010E067
:10168000D0F804329343C0F80432EEE7D0F81432B5
:101690009343C0F81432EFE7D0F81C121143C0F89E
:1016A0001C12D0F8001221F00101C0F80012002035
:1016B00010BD000000640040704730B590F8204035
:1016C000012C07D0022C05D0416A41F480214162EF
:1016D000012030BD21B104682469A4075FD003E074
:1016E0000468E468A40754D04FF4D874056804EB88
:1016F00001142D5905F004059560F5B305682D59C1
:10170000ED08556005682C5904F00204D4604FF4CC
:10171000DA74056804EB01142D5905F00F05156105
:1017200005682D59C5F30725956105682C59240CCA
:1017300054614FF4DC72046802EB0112A4581C706F
:101740000468A458240A5C700468A458240C9C7093
:101750000468A258120EDA704FF4DE72046802EBCD
:101760000112A4581C710468A458240A5C7104680E
:10177000A458240C9C71046800E016E0A258120ED4
:10178000DA71B9B10068016941F0200101610020FE
:1017900030BD416A41F400114162012030BD416A0F
:1017A00041F400114162012030BD05682D596D0DD5
:1017B0001560A7E70068C16841F02001C160E6E755
:1017C0002DE9F05F0546002428684669D0F80490AA
:1017D0008768D0F80CA0D0F810B0D0F81880F107C6
:1017E00048D0F90714D001218160B80703D52846F5
:1017F00000F0C6FA0CE0780702D54FF4006407E069
:10180000380702D54FF4805402E0284600F0B7FABA
:10181000F80516D529684FF480708860B80503D59F
:10182000284600F0AFFA0CE0780502D544F40054E5
:1018300007E0380502D544F4804402E0284600F071
:10184000A0FAF80316D529684FF480308860B803F1
:1018500003D5284600F098FA0CE0780302D544F44A
:10186000004407E0380302D544F4803402E02846FF
:1018700000F089FA300707D55FEACA6004D544F45E
:10188000007429681020C86070074FF0080707D55A
:101890005FEA0A7004D52868C760284600F0C8F9D6
:1018A000B00706D52868C068800702D0284600F037
:1018B000C1F9700607D55FEACB6004D544F48064B3
:1018C000296810200861B00607D55FEA0B7004D5BF
:1018D00028680761284600F023FAF00606D5286834
:1018E0000069800702D0284600F01BFAB00308D533
:1018F0005FEAC96005D5296810204860284600F0D5
:1019000011FAF00307D55FEA097004D5286847602B
:10191000284600F03AFA300446D55FEA497040D5CF
:10192000F00504D55FEAC87001D044F00104B005A9
:1019300004D55FEA887001D544F00204700504D52F
:101940005FEA487001D544F00404300529D518F049
:10195000700F26D008F07000402815D006DC102843
:1019600009D020280AD0302816D10AE050280ED0FD
:10197000602811D10EE044F008040DE044F010049A
:101980000AE044F0200407E044F0400404E044F09E
:10199000800401E044F480742868816921F07001BA
:1019A0008161296804204860002C05D0686A2043C2
:1019B00068622846FFF780FEBDE8F09F70B50446D8
:1019C000002C03D094F8200010B104E0012070BD79
:1019D000204600F09DF82068016841F00101016097
:1019E00000F0C8FC054605260CE000F0C3FC401BD7
:1019F0000A2807D9606A40F40030606284F82060E9
:101A0000012070BD20684068C007EED020680168E2
:101A100021F00201016000F0ADFC05460CE000F091
:101A2000A9FC401B0A2807D9606A40F400306062B4
:101A300084F82060012070BD206840688007EED4E3
:101A4000207E01283FD02068016821F080010160DC
:101A5000607E01283DD02068016821F040010160CE
:101A6000A07E01283BD02068016821F020010160A0
:101A7000E07E012839D02068016841F01001016042
:101A8000207F012837D02068016821F0080101601B
:101A9000607F012835D02068016821F004010160D1
:101AA000D4E902010843D4E90412114308436168F0
:101AB000491E08432168C86100206062012084F843
:101AC0002000002070BD2068016841F080010160A5
:101AD000BEE72068016841F040010160C0E720686E
:101AE000016841F020010160C2E72068016821F02F
:101AF00010010160C4E72068016841F0080101603D
:101B0000C6E72068016841F004010160C8E70000F1
:101B10002DE9F04186B00446142101A8FEF70CFC23
:101B20003E4B3F4ADFF8F080186821683C4C0326A2
:101B30000227401C103200254FF0090C41452FD1DF
:101B40001860012807D1106840F00070106010681C
:101B500000F000700090206840F0080020602068CD
:101B600000F0080000900196029703950496CDF8C6
:101B700014C001A92B4800F0FFFA0022052114200F
:101B800000F096FC142000F085FC002205211520B1
:101B900000F08EFC152000F07DFC06B0BDE8F08161
:101BA000DFF884804145F8D1116841F0806111600F
:101BB000116801F0806100911860012807D1106858
:101BC00040F000701060106800F000700090206815
:101BD00040F002002060206800F0020000904FF406
:101BE00040500190029703950496CDF814C001A9C6
:101BF0000E4800F0C1FA00220521402000F058FCF8
:101C0000402000F047FC00220521412000F050FC5C
:101C1000412000F03FFCC0E700640040BC00002011
:101C200030380240000C02400068004000040240CE
:101C30007047000000B58FB00068334988422ED14C
:101C4000324B08AA00213248FFF737FD0898A0F26E
:101C50000120052809D2DFE800F0030A10161C0055
:101C60002C4A2A490020FFF7D5FA0FB000BD294AB7
:101C700026490120FFF7CEFAF7E7264A234902203A
:101C8000FFF7C8FAF1E7234A20490320FFF7C2FA19
:101C9000EBE720491D48283101F05EFFE5E71E49CA
:101CA0008842E2D1194B01AADB1D00211B48FFF736
:101CB00004FD0198A0F5007005380CD0012812D061
:101CC000022818D00328D0D1124A10493232C91D37
:101CD000FFF7C0FBC9E70F4A0C493232C91D00208B
:101CE000FFF7B8FBC1E70B4A08493232C91D012092
:101CF000FFF7B0FBB9E7074A04493232C91D022099
:101D0000FFF7A8FBB1E700000064004018000020C6
:101D1000CC040020B801002000680040F40400203A
:101D200070477047704770B5044694F8200001284A
:101D300005D0606A40F400206062012070BD02207E
:101D400084F820002068016821F00101016000F0A2
:101D500011FB05460DE000F00DFB401B0A2808D9D9
:101D6000606A40F400306062052084F820000120A1
:101D700070BD20684068C007EDD1606270BD7047DB
:101D80007047704770477047704770472DE9F041C2
:101D90000446A76D00F0EEFA054694F835000026DB
:101DA000022806D08020606584F834600120BDE8F8
:101DB000F0812068016821F0160101602068416906
:101DC00021F080014161206C08B9A06C20B120682D
:101DD000016821F0080101602068016821F001011B
:101DE00001600BE000F0C6FA401B052806D9202050
:101DF00034342062032060702670D8E720680068C1
:101E0000C007EFD134343F2094F828108840B860E0
:101E10000120607026700020C9E790F83510022973
:101E200003D08021416501207047052180F83510DD
:101E30000068016821F00101016000207047000086
:101E40002DE9F84304464FF00009CDF800906F48A3
:101E50004FF416510068B0FBF1F7A56D2E6894F8A9
:101E60005C00082202FA00F1314210D020680168BB
:101E700049070CD5016821F00401016094F85C0069
:101E800002FA00F1A960606D40F00100606594F80D
:101E90005C104FF0010808FA01F0304208D02168C8
:101EA0004969090604D5A860606D40F002006065CC
:101EB00094F85C1004208840304208D021680968FA
:101EC000890704D5A860606D40F00400606594F84F
:101ED0005C1010208840304220D021680968090732
:101EE0001CD5A8602068016849030CD50068000370
:101EF00004D4216C91B1204688470FE0A16C69B1F0
:101F0000204688470AE00168C90503D4016821F02A
:101F100008010160216C09B12046884794F85C10E3
:101F20002020884030424CD021680968C90648D535
:101F3000A86094F8350005280BD020680168490393
:101F400030D50068000328D4616C51B3204688471F
:101F500037E02068016821F01601016020684169BE
:101F600021F080014161206C08B9A06C20B120688B
:101F7000016821F00801016094F85C103F2088405E
:101F8000A86084F8358084F83490216D00293BD016
:101F900001B02046BDE8F0430847E16B09B1204697
:101FA00088470EE00168C90507D4016821F01001D7
:101FB000016084F8358084F83490E16B09B12046E3
:101FC0008847606D00281FD0606DC00714D00520C1
:101FD00084F835002068016821F001010160009853
:101FE000401C0090B84203D820680068C007F6D1B2
:101FF00084F8358084F83490E16C002904D001B075
:102000002046BDE8F0430847BDE8F883C000002043
:102010002DE9F041044600F0ADF905465CB102201F
:1020200084F83500002684F834602068016821F0C7
:10203000010101600DE00120BDE8F08100F09AF996
:10204000401B052805D920206065032084F8350051
:10205000F2E720680068C007F0D121680A682048CC
:102060000240D4E901031843D4E903352B43184354
:1020700063691843A3691843E3691843236A184343
:102080001043626A042A03D1D4E90B231A43104394
:1020900008602068406920F00700656A294605430A
:1020A000012704290DD1A06A0543E06A48B1204602
:1020B000FFF740F928B14020606584F835700120B1
:1020C000BAE7206845612046FFF71EF994F85C20C6
:1020D0003F2191408160666584F835700020ABE750
:1020E0003F8010F02DE9F04104460025A66D94F8DC
:1020F000340001280DD0012084F8340094F83570A4
:102100000020012F07D084F8340002252846BDE8BE
:10211000F0810220FBE7022784F8357060652046D5
:10212000FFF744F994F85C103F208840B0602068C5
:10213000016841F016010160206C20B1206801683F
:1021400041F0080101602068016841F0010101606F
:10215000DCE7000070B5044600F00CF90546601C91
:1021600002D004480078044400F004F9401BA04267
:10217000FAD370BDF80000202DE9F84F0022DFF8F7
:10218000B0914FF0010803274FF00F0C09F1040A3A
:10219000A9F1040B08FA02F50B682B40AB426ED193
:1021A0000C7904F00304012C01D0022C15D18668AF
:1021B000540007FA04FE26EA0E06D1F80CE00EFAE7
:1021C00004FE4EEA060EC0F808E04468AC430D7900
:1021D000C5F300159540254345600C79E443A407F9
:1021E00008D0C568540007FA04F6B5438E68A640C7
:1021F0002E43C6600C7904F00304022C11D1D408DC
:1022000000EB8406356A5407E40E0CFA04FE25EA56
:102210000E05D1F810E00EFA04FE4EEA050EC6F8DF
:1022200020E00568540007FA04F6B5430E7906F07D
:102230000306A6402E4306604C6814F4403F71D05C
:102240003C4C256845F480452560246804F48044AE
:102250000094394C22F003052E19D6F8085894073B
:102260004FEA147E0CFA0EF4A543344CA04201D17F
:1022700000242EE0324CA04202D1012429E051E09A
:10228000304CA04201D1022423E02F4CA04201D1C6
:1022900003241EE02D4CA04201D1042419E02C4C53
:1022A000A04201D1052414E02A4CA04201D1062409
:1022B0000FE0294CA04201D107240AE0274CA0429C
:1022C00001D1082405E0264CA04201D1092400E0F8
:1022D0000A2404FA0EF42C43C6F80848D9F8004042
:1022E0009C434D68ED0200D51C43C9F80040DAF864
:1022F00000409C434D68AD0200D51C43CAF8004025
:10230000DBF800409C434D68AD0300D51C43CBF87F
:102310000040074D083D2C689C434E68F60300D5ED
:102320001C432C60521C102AFFF434AFBDE8F88F18
:10233000083C0140443802400030014000000240A7
:102340000004024000080240000C0240001002405D
:102350000014024000180240001C0240002002400D
:1023600000240240002A01D0816170470904816184
:10237000704700000148806870470000F8000020A6
:10238000024881680278114481607047F80000209B
:1023900010B50B48016841F400710160016841F417
:1023A00080610160016841F480710160032000F0E8
:1023B0009FF80F2000F006F800F050F8002010BD44
:1023C000003C024030B587B0054600241E48016835
:1023D00041F010010160006800F01000009001A9B8
:1023E00002A800F03DF90598A8B100F05DF94000A1
:1023F0001649B0FBF1F1491E1648154A026040F239
:10240000E732C260416004618460846100F07EFD57
:1024100004461CB115E000F047F9E9E70D4800F06B
:10242000E1FD04466CB9362000F034F8102D07D2D7
:1024300000222946362000F03BF80748056000E0FE
:10244000012407B0204630BD4038024040420F0012
:102450000010004024090020FC00002082B00C483D
:10246000016841F480410160006800F480400190FF
:102470000748001F016841F080510160006800F0CA
:102480008050019000220F21901E02B000F010B881
:1024900044380240002809DB00F01F02012191406E
:1024A0004009800000F1E020C0F8001170470000F2
:1024B000F0B40D460D4B1B68C3F30223C3F10704B0
:1024C000042C00D90424191D072901D2002300E09F
:1024D000DB1E012606FA04F1491E294099409E4060
:1024E000761E16403143F0BC02F0FDBF0CED00E05B
:1024F00000F00701054A10684FF6FF03184040EA54
:102500000120034908431060704700000CED00E013
:102510000000FA052DE9F04704460D46002C13D0C3
:10252000DFF82891D9F80000EFB200F00F00A842C0
:102530000CD289F80070D9F8000000F00F00A84212
:1025400004D00120BDE8F0870120FBE72068404E61
:10255000810712D5400703D5306840F4E050306061
:102560002078000703D5306840F460403060306860
:10257000A16820F0F000084330602078C00731D017
:10258000334960680839012808D002280BD0032895
:1025900009D0096889070BD40120D3E709688903AA
:1025A00006D40120CEE70968890101D40120C9E7DA
:1025B000316821F0030101433160FFF7DBFE804603
:1025C00041F2883A07E0FFF7D5FEA0EB080050453E
:1025D00001D90320B6E73068616800F00C00B0EB69
:1025E000810FF0D1D9F8000000F00F00A84209D9FE
:1025F00089F80070D9F8000000F00F00A84201D05F
:1026000001209FE72078400705D53068E16820F475
:10261000E050084330602078000706D53068216913
:1026200020F4604040EAC100306000F05DF831689D
:10263000084AC1F30311515CC840074908600748C4
:102640000068FFF7BFFE00207CE70000003C02406E
:1026500008380240C0960008C0000020FC0000209E
:102660000F2202600B4A136803F0030343601368F0
:1026700003F0F0038360136803F4E053C36012684F
:1026800002F46042D20802610348006800F00F00C3
:102690000860704708380240003C0240014800686A
:1026A00070470000C000002000B5FFF7F7FF0449A5
:1026B0000968044AC1F38221515CC84000BD000092
:1026C00008380240D096000800B5FFF7E7FF04493C
:1026D0000968044AC1F34231515CC84000BD0000A2
:1026E00008380240D096000810B51748006810F06E
:1026F0000C01164816D0164B042912D0082911D106
:10270000114C241F216801F03F02216849020AD5BB
:102710002068C0F38810A0FB03010023FDF7C2FD71
:1027200009E0184610BD21680023C1F38811A1FB00
:102730000001FDF7B7FD2168C1F30141491C4900C3
:10274000B0FBF1F010BD0000083802400024F40096
:10275000001BB7002DE9F84F0446002C13D0207859
:10276000DFF8A083C007A8F1040556D008F10400E3
:102770000168C1F3810101290CD00068C0F3810018
:10278000022803D00DE00120BDE8F88FD8F8000042
:10279000400206D5286880033FD5606870BB0120E1
:1027A000F2E76068B0F5803F10D0B0F5A02F12D0EE
:1027B000286820F480302860286820F48020286071
:1027C0006068E0B1FFF7D6FD064614E0286840F4E3
:1027D00080302860F4E7286840F48020286028686A
:1027E00040F480302860EBE7FFF7C4FD801B6428CD
:1027F00001D90320C8E728688003F5D50DE0FFF76D
:10280000B9FD064606E0FFF7B5FD801B642801D937
:102810000320B9E728688003F5D42078BA4F8007F1
:102820004FF0000948D5B748001D016811F00C0FA2
:1028300008D00068C0F38100022813D1D8F8000046
:1028400040020FD42868800704D5E068012801D031
:10285000012099E72868216920F0F80040EAC100CA
:10286000286029E0E068B8B101203860FFF782FDF8
:10287000064606E0FFF77EFD801B022801D90320F3
:1028800082E728688007F5D52868216920F0F800DC
:1028900040EAC10028600FE0C7F80090FFF76AFD2A
:1028A000064606E0FFF766FD801B022801D90320DB
:1028B0006AE728688007F5D42078000729D5DFF873
:1028C00044A2924861690AF1700A89B1012101604C
:1028D000FFF750FD064606E0FFF74CFD801B02287F
:1028E00001D9032050E7DAF800008007F4D510E0A2
:1028F000C0F80090FFF73EFD064606E0FFF73AFD00
:10290000801B022801D903203EE7DAF80000800787
:10291000F4D42078400778D54FF0000A79483C304D
:102920000068C0000BD477483C30016841F080510A
:102930000160006800F0805000904FF0010ADFF85D
:10294000D0B1DBF80000C00514D4DBF8000040F47F
:102950008070CBF80000FFF70DFD064606E0FFF79C
:1029600009FD801B022801D903200DE7DBF80000D8
:10297000C005F4D5634EA0686C3601280FD0052839
:1029800012D0306820F001003060306820F0040080
:102990003060A068F8B1FFF7EDFC834617E03068BF
:1029A00040F001003060F4E7306840F0040030602F
:1029B000306840F001003060EBE7FFF7DBFCA0EB94
:1029C0000B0141F28830814201D90320DCE63068F6
:1029D0008007F2D510E0FFF7CDFC834609E0FFF752
:1029E000C9FCA0EB0B0141F28830814201D90320E0
:1029F000CAE630688007F2D4BAF1010F05D1414828
:102A00003C30016821F080510160A069C0B33D49AC
:102A1000091D09684FF0FF36C1F38101022946D034
:102A2000022805D0C7F86090FFF7A4FC04463AE0FE
:102A3000C7F86090FFF79EFC814607E0FFF79AFC1D
:102A4000A0EB0900022801D903209DE62868800137
:102A5000F4D4D4E907010843616AA26A890106EB4C
:102A6000520241EA0241084394F82C1040EA016006
:102A7000C8F8000001203866FFF77CFC044607E038
:102A80003DE0FFF777FC001B022801D903207BE61D
:102A900028688001F5D532E0FFF76CFC001B0228A6
:102AA00001D9032070E628688001F5D427E00128C9
:102AB00023D0D8F80000E26900F4800191421AD1D5
:102AC000226A00F03F01914215D147F6C071626A57
:102AD0000140B1EB821F0ED1A26A00F4403106EB37
:102AE0005202B1EB024F06D194F82C1000F0706046
:102AF000B0EB016F03D0012046E6012044E6002040
:102B000042E600000438024000004742800E47427F
:102B10000070004070B50446002C09D0606A0025A2
:102B200040B125616561A56294F8510040B10CE0A7
:102B3000012070BD6068B0F5827FF4D0E561F2E7F6
:102B400084F85050204600F045F8022084F85100E7
:102B50002068016821F040010160A088218900F40B
:102B6000827001F404410843A18901F40061084323
:102B7000217C01F002010843217D01F0010108439D
:102B8000218B01F400710843217F01F038010843D3
:102B900094F8201001F080010843218D01F40051C8
:102BA000084321680860A069042101EA104094F8F4
:102BB000241001F010010843216848602068C169B1
:102BC00021F40061C1616565012084F85100002095
:102BD00070BD000010B586B00446142101A8FDF7B1
:102BE000ABFB14492068884221D1002112480268B9
:102BF00042F480120260006800F4801000900E48D9
:102C00001438026842F020020260006800F02000E0
:102C100000904FF460700190022002900391032015
:102C200004900520059001A90448FFF7A5FA06B015
:102C300010BD000000500140443802400014024022
:102C40002DE9F84F04460A9E8A4693461F46012501
:102C50004FF0000894F8500001280ED0012084F8AD
:102C60005000FFF787FB814694F851006168012806
:102C70000DD0B1F5827F07D102E00220BDE8F88FC8
:102C8000A16809B9042802D04FF00208C3E0BAF1E4
:102C9000000F28D0BBF1000F25D0380023D094F8C6
:102CA0005100042802D0052084F8510000206065FE
:102CB000C4F838B0E787A787C4F830A0E786A786AE
:102CC0002064606420680168490603D4016841F00B
:102CD00040010160E068B0F5006F07D06068E8B3BC
:102CE000012F48D07DE04FF0010894E0606808B102
:102CF000012F39D1206B21680088C860206B801CAF
:102D00002063E08E401EE0862EE0206881688907FF
:102D10000DD5E18E59B1012D09D1216B0988C16012
:102D2000206B801C2063E08E401EE086002520681A
:102D30008168C9070BD0E18F49B1C068A16B0880D9
:102D4000A06B801CA063E08F401EE0870125FFF789
:102D500011FBA0EB0900B04206D300E00BE0701CB1
:102D600002D04FF0030856E0E08E0028CDD1E08F6E
:102D70000028CAD13BE0206B216800780873206BE3
:102D8000401C2063E08E401EE0862AE020688168B7
:102D900089070DD5E18E59B1012D09D1216B097833
:102DA0000173206B401C2063E08E401EE0860025EE
:102DB00020688168C9070BD0E18F49B1C068A16B59
:102DC0000870A06B401CA063E08F401EE0870125C7
:102DD000FFF7D0FAA0EB0900B04201D3701C11D16B
:102DE00086B1E08E0028D1D1E08F0028CED14A46AE
:102DF0003146204601F0C8FD38B14FF001082020CF
:102E0000606508E04FF0030805E0A06818B9206885
:102E1000C1688068009001205034607000202070EC
:102E200040462BE77047704710B590F83C20012AC8
:102E300022D0012280F83C20CA6800238C6822F44A
:102E4000407222434C6822F4806222430C6822F4D0
:102E5000006222430C6922F4805222434C6922F41E
:102E600000522243C96922F480420A4301684A643D
:102E700080F83C30002010BD022010BD70B590F8E5
:102E80003C20012A31D0012680F83C60022280F8E3
:102E90003D2002685468936824F070050C682C4348
:102EA0005460134C0268A24214D0B2F1804F11D08A
:102EB000104CA2420ED0104CA2420BD00F4CA2429A
:102EC00008D00F4CA24205D00E4CA24202D00E4CAC
:102ED000A24204D123F080034968194391603C3039
:102EE000467000210170002070BD022070BD0000FE
:102EF000000001400004004000080040000C0040B9
:102F000000040140004001400018004010B5044694
:102F1000002C03D094F83D0010B107E0012010BD53
:102F2000002084F83C00204600F016F8022084F8C7
:102F30003D00211D206801F06FFE01203D346072CC
:102F40006070A070E07020716071A071E0712072FB
:102F50002070002010BD000008B500681D4A1E4901
:102F6000904208D1086840F001000860086800F04D
:102F70000100009008BD184A121FB0F1804F14D014
:102F8000164B98421AD1106840F02000106010686B
:102F900000F020000090002205213720FFF788FA7A
:102FA000BDE808403720FFF775BA106840F001000F
:102FB0001060106800F00100009008BD084A9042BF
:102FC000FBD1086840F002000860086800F00200C9
:102FD000009008BD00000140443802400014004049
:102FE0000004014090F83D10012901D001207047F4
:102FF000022180F83D100168CA6842F00102CA60EF
:1030000000681449884214D0B0F1804F11D01249A1
:1030100088420ED0114988420BD01149884208D00D
:103020001049884205D01049884202D00F49884291
:1030300009D1816801F00701062908D0016841F033
:103040000101016003E0016841F00101016000201D
:1030500070470000000001400004004000080040EC
:10306000000C0040000401400040014000180040F6
:1030700070B50446002594F83C00012817D00126BD
:1030800084F83C60022084F83D002068826822F0C9
:10309000770222F47F4282600868502838D00DDC25
:1030A000202853D005DC90B3102811D14EE0022027
:1030B00070BD30284AD040280AD13DE0602831D088
:1030C00070280CD0B0F5805F03D0B0F5005F12D04F
:1030D00001253C34667000202070284670BDCB6806
:1030E000D1E90121206801F00AFE2068816841F0E1
:1030F00077018160EDE7CB68D1E90121206801F01B
:10310000FEFD2068816841F480418160E1E71DE0B7
:10311000CA684968206801F0D5FE5021206801F096
:10312000F8FDD6E7CA684968206801F0DCFE602136
:10313000206801F0EEFDCCE7CA684968206801F01C
:10314000C1FE4021206801F0E4FDC2E7226801468B
:10315000104601F0DEFDBCE7704770B504462068FC
:1031600001694FF00005C943890716D4C168C943F6
:10317000890712D4E91E0161012020772068806947
:10318000800703D02046FFF7E7FF05E0204600F068
:10319000F7F8204600F087F9257720680169C943D0
:1031A000490718D4C168C943490714D46FF0040112
:1031B0000161022020772068806910F4407F03D0ED
:1031C0002046FFF7C9FF05E0204600F0D9F8204669
:1031D00000F069F9257720680169C943090717D408
:1031E000C168C943090713D46FF0080101610420C5
:1031F00020772068C069800703D02046FFF7ACFF26
:1032000005E0204600F0BCF8204600F04CF9257798
:1032100020680169C943C90618D4C168C943C906F1
:1032200014D46FF010010161082020772068C06974
:1032300010F4407F03D02046FFF78EFF05E02046C4
:1032400000F09EF8204600F02EF9257720680169ED
:10325000C943C90708D1C168C943C90704D1891E38
:103260000161204600F08EF920680169C943090612
:1032700009D4C168C943090605D46FF08001016112
:103280002046FFF7CFFD20680169C943490609D4EC
:10329000C168C943490605D46FF040010161204669
:1032A00000F07AF920680169C94389060BD4C16826
:1032B000C943890607D46FF0200101612046BDE8AB
:1032C0007040FFF7B0BD70BD30B587B00446142123
:1032D00002A8FDF731F8244D20680021234A02237B
:1032E0000124A84213D1106840F01000106010684B
:1032F00000F010000190D014029003930491059106
:10330000069402A91A48FEF737FF07B030BDB0F1A6
:10331000804F16D0174CA042F7D1106840F480704F
:103320001060106800F480700190E4200290039314
:10333000049105910320069002A90F48FEF71CFF97
:10334000E3E7106840F001001060106800F0010031
:1033500001900F200290039304910591069402A915
:103360000648FEF709FFD0E7000001403038024070
:103370000010024000040140002002400000024012
:10338000704770B504460D46002694F83C000128AD
:103390000FD0012084F83C006AB1042A1FD0082A0B
:1033A00032D00C2A44D00126002084F83C0030465C
:1033B00070BD022070BD2946206801F0B3FC206872
:1033C000816941F0080181612068816921F004016F
:1033D0008161206881692A6911438161E4E7294696
:1033E000206801F0D3FC2068816941F400618161AB
:1033F0002068816921F480618161206881692A697E
:1034000041EA02218161CFE72946206801F0F8FCFA
:103410002068C16941F00801C1612068C16921F0DB
:103420000401C1612068C1692A691143C161BBE718
:103430002946206801F01CFD2068C16941F4006143
:10344000C1612068C16921F48061C1612068C169DE
:103450002A6941EA0221C161A6E710B50446002CA1
:1034600003D094F83D0010B107E0012010BD00200A
:1034700084F83C00204600F015F8022084F83D0056
:10348000211D206801F0C8FB01203D34607260708E
:10349000A070E07020716071A071E07120722070E6
:1034A000002010BD7047704710B50446002909D0B0
:1034B00004290AD008290BD094F8410001280AD029
:1034C000012010BD94F83E00F8E794F83F00F5E7BE
:1034D00094F84000F2E70220A9B3042937D0082964
:1034E00038D084F841000122206801F0FBFB1E491E
:1034F00020681E4A884201D0904203D1436C43F4B5
:10350000004343642068884213D0B0F1804F10D04C
:10351000174988420DD0174988420AD01649884277
:1035200007D0904205D01549884202D014498842FC
:1035300013D1816801F00701062912D0016841F01A
:10354000010101600DE0FFE784F83E00CBE784F85D
:103550003F00C8E784F84000C5E7016841F0010179
:103560000160002010BD0000000001400004014087
:103570000004004000080040000C004000400140F2
:103580000018004000680349884201D1FEF7F8BEE8
:1035900070470000001000407047704770470000FF
:1035A000F8B5044622681068D168536900F00F0628
:1035B000002E08D1850606D58D0604D52046BDE827
:1035C000F84001F081BD0025002E66D003F0010611
:1035D00001F49077374360D0C20705D0CA0503D500
:1035E000226C42F001022264420705D5DA0703D0BB
:1035F000226C42F002022264820705D5DA0703D06A
:10360000226C42F004022264020707D501F0200276
:10361000324303D0226C42F008022264226C002A5A
:1036200031D0800604D5880602D5204601F04CFD35
:1036300020684069C0F38010216C090700D438B3BA
:10364000204601F0EEFC2068406940061CD5206849
:10365000143050E8001F21F0400140E80012002A19
:10366000F5D1A06B60B157490165A06BFEF7D5FBA2
:10367000002808D0A06B016D01B0BDE8F0400847FC
:103680002046FFF78BFFF8BD2046FFF787FFF8BD08
:103690002046FFF783FF2564F8BD236B012B7ED105
:1036A000C3067CD5CB067AD5106850680090506967
:1036B0004FF02003400643D5A16B0868406880B2F4
:1036C0000028E9D0A28D8242E6D9E085C869B0F52C
:1036D000807F2DD020680C3050E8001F21F48071CD
:1036E00040E80012002AF5D12068143050E8001F8D
:1036F00021F0010140E80012002AF5D120681430C1
:1037000050E8001F21F0400140E80012002AF5D1E6
:1037100084F83E30256320680C3050E8001F21F00B
:10372000100140E80012002AF5D1A06BFEF72EFB35
:10373000A08DE18D401A81B22046FFF72EFFF8BD23
:10374000A08DE18D401A81B2E08D0028F7D00029CC
:10375000F5D020680C3050E8002F22F4907240E839
:103760000026002EF5D12068143050E8002F22F0FA
:10377000010240E80026002EF5D184F83E30256392
:1037800020680C3050E8002F22F0100240E800239F
:10379000002BF5D12046FFF700FFF8BDFFE702063A
:1037A00006D50A0604D52046BDE8F84001F0E4BD80
:1037B0004006F2D54806F0D52046BDE8F84001F0B5
:1037C00057BC00002D4F000870B50446002C04D0F3
:1037D00094F83D00002510B106E0012070BD84F88A
:1037E0003C50204600F022F8242084F83D00206858
:1037F000C16821F40051C160204601F0C9FC206875
:10380000016921F4904101612068416921F02A0198
:1038100041612068C16841F40051C16025642020E5
:1038200084F83D0084F83E00002070BD2DE9F04F83
:1038300087B00446142102A8FCF77EFD8D48DFF80E
:1038400030B21038D4F800A0DFF828C202220321D9
:103850000823894D002607154FF480794FF0206822
:10386000DA4558D1DCF800A04AF0804ACCF800A034
:10387000DCF800C00CF0804CCDF804C0D0F800C0DB
:103880004CF0100CC0F800C0006800F0100001906F
:10389000C8010290039204960591069302A9284656
:1038A000FEF76AFC764D75482860C5F80480402014
:1038B000A860EE602F616E61AE61EE612E626E6295
:1038C0002846FEF7A5FB08B1FDF786FD6563AC63EE
:1038D0006A486B4D303060352860C5F80480AE60B2
:1038E000EE602F616E61AE61C5F81C902E626E6253
:1038F0002846FEF78DFB08B1FDF76EFDA563AC63AE
:10390000002205215220FEF7D3FD5220FEF7C2FD12
:1039100007B0BDE8F08FDFF86CB1DA453ED1DCF8D6
:10392000009049F00049CCF80090DCF800C00CF0A1
:10393000004CCDF804C0D0F800C04CF0100CC0F81A
:1039400000C0006800F010000190029103920496FC
:103950000591069302A92846FEF70EFC4748484DFC
:103960007830C0352860C5F80480AE60EE602F6105
:103970006E61AE61EE612E626E622846FEF748FB14
:1039800008B1FDF729FDA563AC6300220521532092
:10399000FEF78EFD5320FEF77DFDB9E7354DDFF8CC
:1039A000E8C02D1DE2453CD12B6843F010032B608D
:1039B0002B6803F010030193036843F002030360D4
:1039C000006800F002000190C0200290039204966B
:1039D00005910720069002A92C48FEF7CDFB2D4D3E
:1039E0002B4828604FF000606860AE60EE602F6189
:1039F0006E61AE61C5F81C904FF4403028626E6273
:103A00002846FEF705FB08B1FDF7E6FCA563AC63AD
:103A1000002205212520FEF74BFD2520FEF73AFD6B
:103A200076E71D4CA245B8D12C6844F020042C60E8
:103A30002C6804F020040194046844F040040460FD
:103A4000006800F0400001904FF48440029003921F
:103A500004960591069302A91048FEF78DFB0022FB
:103A600005214720FEF724FD4720FEF713FD4FE711
:103A700000780040403802400010024028600240B8
:103A8000A4070020007C0040001001400004024018
:103A900040640240C40800200014014000180240A5
:103AA00090F83E30202B01D00220704759B152B11E
:103AB00090F83C30012B08D0012380F83C300023E3
:103AC000036301F03BBC01207047022070470000F7
:103AD00010B508221B491C48FFF7E2FF00282FD130
:103AE000184C263C607840426070164881784278D5
:103AF00001EB022215490A800279C37802EB032206
:103B00004A80A17859B98179427901EB022100EE0E
:103B1000101AB8EE400A84ED050A0121A1708179DE
:103B2000407901EB002000EE100AB8EE400A84ED67
:103B3000030AFDF7ABFAA080BDE8104005F048BAD3
:103B400010BD000026000020D8060020280A002012
:103B500070477047FEE700000A4A12880A814278DF
:103B6000037842EA03220A804279037942EA032277
:103B70008A80C278837842EA03224A8080798871F9
:103B800070470000E001002010B50F480D490160AA
:103B90000321416000218160C1604FF40022026175
:103BA0004FF440124261017641768176C176017709
:103BB0004177FDF703FF002803D0BDE81040FDF773
:103BC0000BBC10BD00640040CC04002010B50F48B1
:103BD0000D4901600321416000218160C1604FF403
:103BE000002202614FF440124261017641768176F3
:103BF000C17601774177FDF7E1FE002803D0BDE8EB
:103C00001040FDF7E9BB10BD00680040F40400203F
:103C100008B51948016841F480010160016801F4A8
:103C200080010091016841F400110160006800F416
:103C300000100090002205210C20FEF739FC0C201A
:103C4000FEF728FC002205210E20FEF731FC0E2095
:103C5000FEF720FC002205211120FEF729FC11208F
:103C6000FEF718FC002205213A20FEF721FCBDE8F2
:103C700008403A20FEF70EBC3038024010B5A4B020
:103C80001C221C491DA8FCF73EFB00211DA804F0C6
:103C9000DEFD194C20601C2216491C3116A8FCF7C9
:103CA00032FB002116A804F0D2FD60601C221149ED
:103CB00038310FA8FCF727FB00210FA804F0C7FD3F
:103CC000A0601C220B49543108A8FCF71CFB002102
:103CD00008A804F0BCFDE0601C220649703101A870
:103CE000FCF711FB002101A804F0B1FD206124B014
:103CF00010BD000034960008A800002030B587B041
:103D0000142102A8FCF718FB00242948016841F09F
:103D100010010160016801F010010191016841F09A
:103D200040010160016801F040010191016841F02A
:103D300001010160016801F001010191016841F098
:103D400002010160016801F002010191016841F086
:103D500008010160016801F008010191016841F466
:103D600080710160016801F480710191016841F086
:103D700080010160016801F080010191016841F05A
:103D800020010160006800F020000190094D002230
:103D900040212846FEF7E6FA4021029101210391D5
:103DA0000494059402A92846FEF7E6F907B030BD51
:103DB000303802400014024010B510480E4901602E
:103DC0004FF48271416000218160C16001614161F5
:103DD0004FF4007282613022C261016241628162ED
:103DE0000A21C162FEF796FE002803D0BDE810400C
:103DF000FDF7F2BA10BD0000005001401C05002084
:103E000010B596B000241294139414941594109441
:103E100011941C2109A8FCF78FFA202101A8FCF7B6
:103E20008BFA284826490160A821416084604FF43C
:103E30007A71C160046144618461FFF767F808B179
:103E4000FDF7CAFA4FF48050129012A91D48FFF7EF
:103E50000FF908B1FDF7C0FA1A48FFF7FEFA08B1EA
:103E6000FDF7BAFA1094119410A91648FFF706F856
:103E700008B1FDF7B1FA602009900A940B940C94F4
:103E80000D940E940F94042209A90E48FFF779FAB5
:103E900008B1FDF7A1FA01940294039404940594E7
:103EA0004FF400500690089401A90648FEF7BCFFA5
:103EB00008B1FDF791FA0348FFF706FA16B010BDF6
:103EC000000001407405002010B58EB000240A9453
:103ED0000B940C940D94089409941C2101A8FCF7F0
:103EE0002BFA2A484FF080410160532141608460E1
:103EF00044F61F61C16004618461FFF707F808B1EF
:103F0000FDF76AFA4FF480500A900AA91F48FFF79C
:103F1000AFF808B1FDF760FA1C48FFF79EFA08B148
:103F2000FDF75AFA0894099408A91848FEF7A6FF65
:103F300008B1FDF751FA60200190029403940594B2
:103F4000002201A91148FFF71CFA08B1FDF744FA55
:103F5000042201A90D48FFF714FA08B1FDF73CFA55
:103F6000082201A90948FFF70CFA08B1FDF734FA55
:103F70000C2201A90548FFF704FA08B1FDF72CFA55
:103F80000248FFF7A1F90EB010BD0000BC050020EB
:103F90001CB50024009401940D480C4901602921AE
:103FA0004160846040F2E731C1608461FEF7AEFF9A
:103FB00008B1FDF711FA0094019469460448FEF730
:103FC0005DFF002801D0FDF707FA1CBD001400407A
:103FD0000406002010B596B0002412941394149493
:103FE0001594109411941C2109A8FCF7A5F920211F
:103FF00001A8FCF7A1F9344832490160A7214160CA
:10400000846044F61F61C160046144618461FEF70D
:104010007DFF08B1FDF7E0F94FF48050129012A92E
:104020002948FFF725F808B1FDF7D6F92648FFF72C
:1040300014FA08B1FDF7D0F91094119410A9224890
:10404000FEF71CFF08B1FDF7C7F9602009900A943C
:104050000B940C940D940E940F94002209A91A4805
:10406000FFF78FF908B1FDF7B7F9042209A916483F
:10407000FFF787F908B1FDF7AFF9082209A912483F
:10408000FFF77FF908B1FDF7A7F90C2209A90E483F
:10409000FFF777F908B1FDF79FF9019402940394B3
:1040A000049405944FF400500690089401A9064822
:1040B000FEF7BAFE08B1FDF78FF90348FFF704F9E0
:1040C00016B010BD000401404C06002010B50C488D
:1040D0000A4901604FF4E131416000218160C16013
:1040E00001610C2242618161C161FFF76DFB002813
:1040F00003D0BDE81040FDF76FB910BD0078004057
:104100009406002010B50C480A4901604FF4E131D3
:10411000416000218160C16001610C2242618161C6
:10412000C161FFF751FB002803D0BDE81040FDF747
:1041300053B910BD007C0040D806002010B50C48D3
:104140000A4901600B49416000218160C160016141
:104150000C2242618161C161FFF736FB002803D068
:10416000BDE81040FDF738B910BD00000010014057
:104170001C070020A086010010B50C480A49016008
:104180004FF4E131416000218160C16001610C2286
:1041900042618161C161FFF717FB002803D0BDE8D0
:1041A0001040FDF719B910BD001401406007002050
:1041B000FEE7FEE770B50646002404EB440000EB82
:1041C000041006EB800505F5437000F0F9F905F2DF
:1041D0003C4000F0F5F905F5EE7000F0F1F9641CD3
:1041E000E4B2042CE9D370BD10B504460A46002C95
:1041F0001ED094ED101A84ED111A94ED0F1A84ED6F
:10420000101AC4ED060A84ED070ABCEEC00A10EECF
:10421000100ABCEEE00A81B210EE100A80B203F080
:1042200055FB84ED0F0A207828B1012854D098E07E
:104230009FED4D0A10BDD4ED010A20EE801A84EDE9
:10424000091AD4ED0A0AD4ED021A41EE800AC4ED2F
:104250000A0AD4ED0D1AC4ED0E1AD4ED0C1AC4EDF1
:104260000D1AD4ED101A30EE610A84ED0C0AD4ED6B
:10427000031A61EE801AC4ED0B1A94ED050AF4EEF0
:10428000C00AF1EE10FA02DD84ED0A0A08E0B1EE90
:10429000400AF4EEC00AF1EE10FA01D284ED0A0AE7
:1042A00094ED0A0A31EE000A30EE210A84ED080A84
:1042B000D4ED040AB4EEE00AF1EE10FA02DDC4ED2A
:1042C000080A4EE0F1EE600AB4EEE00AF1EE10FAF0
:1042D00047D2C4ED080A44E0D4ED101A94ED011A57
:1042E00070EE610A20EE811A84ED091AD4ED020AFB
:1042F00060EE800AC4ED0A0A94ED0D2A84ED0E2AC0
:1043000094ED0C2A84ED0D2AB0EE002A01EEC20ACB
:10431000D4ED111A30EE210A84ED0C0AD4ED031A03
:1043200021EE800A84ED0B0A71EE200A30EE800A3D
:10433000D4ED080A30EE200A84ED080AD4ED040A10
:10434000B4EEE00AF1EE10FA02DDC4ED080A08E06E
:10435000F1EE600AB4EEE00AF1EE10FA01D2C4ED1B
:10436000080A94ED080A10BD000000009FED902A95
:10437000002802D0417819B11AE0B0EE420A704725
:1043800090ED0F1A8B4A11EE101ADFED8B1A914245
:1043900003DD31EE611A80ED0F1A90ED0F1A874A96
:1043A00011EE101A914203D931EE211A80ED0F1A45
:1043B000D0ED101AC0ED111A90ED0F1A80ED101A01
:1043C000C0ED060A80ED070A30EEC00AF7EE002ABB
:1043D00022EE800A02EE010A80ED0F0A017821B177
:1043E000012951D002297CD0DEE0D0ED010A60EE37
:1043F000801AC0ED091AD0ED0A0A90ED022A42EEA9
:10440000000AC0ED0A0A90ED0D2A80ED0E2A90ED0B
:104410000C2A80ED0D2A30EE410A80ED0C0A90ED59
:10442000031A21EE001A80ED0B1A90ED050AF4EE46
:10443000C00AF1EE10FA02DD80ED0A0A08E0B1EEE2
:10444000400AF4EEC00AF1EE10FA01D280ED0A0A39
:1044500090ED0A0A31EE800A30EE010A80ED080A7A
:10446000D0ED040AB4EEE00AF1EE10FA02DDC0ED80
:10447000080A99E0F1EE600AB4EEE00AF1EE10FAF3
:1044800001D2C0ED080A8FE070EE410A90ED012ADA
:1044900060EE820AC0ED090A90ED022A22EE002A9F
:1044A00080ED0A2AD0ED0D2AC0ED0E2AD0ED0C2A9F
:1044B000C0ED0D2AF0EE002A01EE620A30EE210A6C
:1044C00080ED0C0A90ED031A21EE000A80ED0B0A34
:1044D00070EE820A30EE800AD0ED080A30EE200A33
:1044E00000E015E080ED080AD0ED040AB4EEE00A21
:1044F000F1EE10FA02DDC0ED080A55E0F1EE600AB7
:10450000B4EEE00AF1EE10FA4ED2C0ED080A4BE02C
:1045100070EE410A90ED011A20EE811A80ED091A21
:10452000D0ED021A21EE800A80ED0A0AD0ED0D1AB4
:10453000C0ED0E1AD0ED0C1AC0ED0D1AC0ED0C0A2C
:10454000D0ED031A61EEA01AC0ED0B1AD0ED050AEA
:10455000B4EEE00AF1EE10FA02DDC0ED0A0A08E05E
:10456000F1EE600AB4EEE00AF1EE10FA01D2C0ED0D
:104570000A0A90ED0A0A31EE000A30EE210A80EDB7
:10458000080AD0ED040AB4EEE00AF1EE10FA02DDFA
:10459000C0ED080A08E0F1EE600AB4EEE00AF1EEC0
:1045A00010FA01D2C0ED080A90ED080A7047000029
:1045B00000000000000034430000B443000034C396
:1045C000002819D09FED0D0A80ED110A80ED100A28
:1045D00080ED0F0A80ED0E0A80ED0D0A80ED0C0AC9
:1045E00080ED0B0A80ED0A0A80ED090A80ED080AC9
:1045F00080ED060A80ED070A704700000000000009
:10460000002828D0002A26D0017092ED001A80EDF3
:10461000011A92ED011A80ED021A92ED021A80ED54
:10462000031A80ED040AC0ED050A9FED0B0A80ED28
:104630000E0A80ED0D0A80ED0C0A80ED080A80ED6F
:104640000B0A80ED0A0A80ED090A80ED110A80ED5F
:10465000100A80ED0F0A704700000000002801DCFE
:10466000404200B27047000070B5194CB4F9000028
:10467000FFF7F4FF4FF42F75A84217DCB4F90200DE
:10468000FFF7ECFFA84211DCB4F90400FFF7E6FFE6
:10469000A8420BDCB4F90600FFF7E0FFA84205DCF6
:1046A000A07A18B1E07A08B1002070BD0020208007
:1046B0006080A080E08020810221A172E172A0814F
:1046C000E0812082A074E074A082012070BD00000F
:1046D0006C09002030B5174C23685D6945F0400532
:1046E0005D612368DC6844F01004DC60124C2368D0
:1046F0001D6825F001051D6003E01D6825F001051A
:104700001D6023681D68ED07F7D125680B4BAB6072
:104710002368D860206801612068426020680168D1
:1047200041F4802101602068016841F001010160CD
:1047300030BD00001C070020C40800200410014008
:1047400010B50C4B1968CA6822F40052CA600A4AB4
:1047500011680C6824F001040C601168486010684E
:10476000016841F0010101601868C16841F400511D
:10477000C16010BD1C070020C408002010B590F8CF
:10478000B01500F5806400291AD0012917D1FFF770
:1047900011FD94ED7D0A84ED6F0A94ED7B0A84EDA2
:1047A0006D0A94ED7C0A84ED6E0A0B48D4ED710A13
:1047B00090ED0C0A094830EE600A80ED000A10BD49
:1047C000FFF7F8FC9FED060A84ED6F0A84ED6D0A91
:1047D00084ED6E0A10BD000014020020D0000020FD
:1047E000000000002DE9F0410546002405EB84009F
:1047F00000F58060D0ED770A04EB840005EB8000C3
:10480000C068B0F9020000EE100A04EB440000EBAF
:10481000041005EB8000B8EEC00A00F5EE70FFF75B
:10482000A5FD641C042CE1DB002441F6FF7805EBB8
:10483000840000F580604146D0ED730A201D00EB36
:10484000800005EB8007F868008800EE100A04EB92
:10485000440000EB041005EB8006B8EE400A06F5B4
:104860004370FFF7C1FCF868D6EDCB0AB0F902003F
:1048700000EE100A06F23C40B8EEC00AFFF776FDE3
:10488000641C042CD3DBBDE8F081000010B50446A5
:104890002DED068B84B0DFED3A0A20EE200ADFED25
:1048A000390A80EE208A94ED020A8DED030A18EE93
:1048B000100AFBF7E5FE41EC100B02F0D1F8B0EE68
:1048C000409AF0EE609A6068FBF7DAFE53EC192B21
:1048D000FBF7E4FD41EC190B18EE100AFBF7D0FED4
:1048E00041EC100B01F024FAB0EE40AAF0EE60AA01
:1048F0002068FBF7C5FE53EC1A2BFBF7CFFD53ECFA
:10490000192BFBF7C5FDFBF7FFFE019018EE100A0F
:10491000FBF7B6FE41EC100B01F00AFAB0EE409A3C
:10492000F0EE609A6068FBF7ABFE53EC192BFBF7D7
:10493000B5FD41EC190B18EE100AFBF7A1FE41EC96
:10494000100B02F08DF8B0EE408AF0EE608A20681D
:10495000FBF796FE53EC182BFBF7A0FD53EC192B3D
:10496000FBF7F5FCFBF7D0FE029001A8FCF772F80C
:1049700001A8FCF7F5F904B0BDEC068B10BD0000F2
:10498000DA0F4940000034437CB504461348144D07
:104990000068B0FBF5F04FF47A75684301906068E9
:1049A000B0F5827F0DD10B46009200228021204677
:1049B00000F018F878B1606D40F0200060650320C9
:1049C0007CBD019838B10198401E01902068806834
:1049D000C0430006F5D500207CBD0000C0000020CB
:1049E00000366E012DE9F84304460F4691461E46F7
:1049F000089DFDF7BFFC401B351AFDF7BBFC804648
:104A000026480068C0F3CB30684300903AE0701C41
:104A100038D0FDF7AFFCA0EB0800A84203D215B1D7
:104A2000009858B32BE02068416821F0E001416014
:104A30006068B0F5827F0BD1A068B0F5004F02D05E
:104A4000B0F5806F04D12068016821F04001016059
:104A5000A06AB0F5005F09D12068016821F4005117
:104A600001602068016841F4005101600120503468
:104A70006070002020700320BDE8F88300250098B6
:104A8000401E00902068806837EA000004D00020B3
:104A90004845BCD10020EFE70120F9E7C000002025
:104AA00070B505462DED028B05F5806090ED730A1B
:104AB000E86DB0F90000FCF791FC10EE100AFBF76E
:104AC000DFFD41EC100B01F097F99FED151B51EC48
:104AD000100B53EC112BFBF7FFFD1DD200249FEDB3
:104AE000128ADFED128A05EB840606F5806696EDE4
:104AF000730A30EE080A86ED730AF0EE680AFCF7D6
:104B000055FA86ED730A641C042CECDBFF2085F853
:104B1000C005BDEC028B70BD012085F8C005F8E72B
:104B2000000000000000A04000008045000000469A
:104B300010B5502080F31188BFF34F8FBFF36F8FF4
:104B400004F0A0FC18B104494FF080500860002028
:104B500080F3118810BD000004ED00E030B593B083
:104B6000302107A8FBF7E8FB142102A8FBF7E4FBC0
:104B700000251D48016841F080510160006800F087
:104B8000805001901948016841F44041016000687B
:104B900000F4404001900120079000040890022496
:104BA0000D9480010E9006200F90A8201090119473
:104BB0000420129007A8FDF7CDFD08B1FCF70CFC0E
:104BC0000F200290039404954FF4A05005904FF4E9
:104BD00080500690052102A8FDF79CFC002801D01A
:104BE000FCF7FAFB13B030BD4038024000700040C3
:104BF0000248016841F470010160704788ED00E0EF
:104C00000148FEF7AABA0000240900200148FEF777
:104C1000A4BA0000040600202DE9F0410268264DE8
:104C2000264E274FDFF89CC0274B4FF08048A84204
:104C300009D0404507D0B04205D0B84203D0604506
:104C400001D0984203D122F070044A682243A8425E
:104C50001BD0404519D0B04217D0B84215D060459E
:104C600013D0984211D0194CA0420ED0184CA0423B
:104C70000BD0184CA04208D0174CA04205D0174CBE
:104C8000A04202D0164CA04203D122F44074CA685C
:104C900022434C6922F08002224302608A68C26289
:104CA0000A688262A84201D0984201D10969016371
:104CB00001214161BDE8F081000001400004004095
:104CC00000080040000C004000040140004001408A
:104CD000004401400048014000180040001C004012
:104CE0000020004010B501F01F0101238B40046A31
:104CF0009C430462036A8A401343036210BD10B5EB
:104D0000846824F47F4442EA03220A4322438260F7
:104D100010BD826822F070020A4342F007018160F0
:104D200070470000F0B5026A22F001020262026AD6
:104D30004368846924F0700424F003050C682C4354
:104D400022F002058A682A430E4E0F4FB04201D06E
:104D5000B84205D122F00805CA682A4322F00402AD
:104D6000B04201D0B84207D123F4807323F400731A
:104D70004D691D438B692B434360846149684163DE
:104D80000262F0BD0000014000040140F0B5026A7B
:104D900022F010020262036A4268846924F4E0444B
:104DA00024F440740D6844EA052423F020038D6840
:104DB00043EA0513104D114EA84201D0B04206D16E
:104DC00023F08003CF6843EA071323F04003A8428F
:104DD00001D0B04209D122F4806222F400624D6910
:104DE00042EA85028D6942EA85024260846149682F
:104DF00081630362F0BD0000000001400004014037
:104E0000F0B5026A22F480720262026A4368C469E1
:104E100024F0700424F003050C682C4322F4007283
:104E20008D6842EA0522104D104EA84201D0B042D2
:104E300006D122F40062CF6842EA072222F480629F
:104E4000A84201D0B04209D123F4805323F4005387
:104E50004D6943EA05138D6943EA05134360C46154
:104E60004968C1630262F0BD0000014000040140D6
:104E700030B5026A22F480520262046A4268C36951
:104E800023F4E04323F440730D6843EA052324F43C
:104E900000548D6844EA0534084DA84202D0084DFC
:104EA000A84204D122F480424D6942EA8512426050
:104EB000C36149680164046230BD00000000014024
:104EC0000004014010B5036A046A24F0010404627E
:104ED000846924F0F00444EA021423F00A020A432D
:104EE0008461026210BD10B5036A23F010030362EF
:104EF0008469036A24F4704444EA023223F0A00374
:104F000043EA01118261016210BD000010B503483F
:104F1000FEF746FBBDE8104003F074BC9406002089
:104F20000148FEF73DBB0000D806002010B5806B9D
:104F30000021C185C184FEF731FB10BD70B5846BC3
:104F400020684069C0F3C01094F83D100025212965
:104F500004D118B1E584204600F097F82068406934
:104F6000C0F3801094F83E10222904D118B1E585D1
:104F7000204600F056F8206C40F0100020642046D7
:104F8000FEF70CFB70BD10B50146886B0968096817
:104F9000C9052FD40021C18501680C3151E8002FCB
:104FA00022F4807241E80023002BF5D1016814310E
:104FB00051E8002F22F0010241E80023002BF5D137
:104FC0000168143151E8002F22F0400241E800232B
:104FD000002BF5D1202180F83E10016B012909D169
:104FE00001680C3151E8002F22F0100241E8002343
:104FF000002BF5D1016B012902D0FEF769FD10BD30
:10500000818DFEF7CAFA10BD10B5806B016B0129C6
:1050100002D0FEF79DFD10BD818D4908FEF7BDFA57
:1050200010BD01680C3151E8002F22F4907241E864
:105030000023002BF5D10168143151E8002F22F034
:10504000010241E80023002BF5D1016B012909D1B0
:1050500001680C3151E8002F22F0100241E80023D2
:10506000002BF5D1202180F83E100021016370470C
:1050700010B50168CA6822F04002CA60202180F899
:105080003D10FEF766FD002010BD01680C3151E8AF
:10509000002F22F0C00241E80023002BF5D120218F
:1050A00080F83D107047000005480068C16841F075
:1050B0001001C1604FF4FA620249014800F0F2B8F1
:1050C000940600205810002008B590F83E102229C0
:1050D00001D0022008BD82684FF480539A4201D16A
:1050E000016921B1816A9A421DD052B10BE0816AF7
:1050F00002685268C2F308020A80816A891C8162D0
:1051000009E002697AB10268526802F07F020A700F
:10511000816A491C8162C18D491E0904090CC1853F
:1051200005D0002008BD026852680A70F0E70168E7
:10513000CA6822F02002CA600168CA6822F480723C
:10514000CA6001684A6922F001024A61202180F8A0
:105150003E10016B012903D0FEF7BAFC002008BD08
:105160000021016301680C3151E8002F22F0100288
:1051700041E80023002BF5D101680A68D20602D568
:105180000A6849680091818DFEF707FAE6E700009A
:105190002DE9F041044620680169E26821F440519C
:1051A00011430161A1682069E2690143606910430C
:1051B00001432068C26849F20C639A430A43C26003
:1051C00020684169A26921F440711143416133496A
:1051D0002068884202D03249884202D1FDF774FA31
:1051E00001E0FDF761FAE169002319276425322601
:1051F000B1F5004F28D061688B0F8A00A0FB070132
:10520000FBF750F80146B0FBF5F07A42504301EB52
:10521000800006EB0010B0FBF5F000F0F002B1FBEF
:10522000F5F002EB0012B1FBF5F07B42584301EBC5
:10523000800006EB0010B0FBF5F0216800F00F00D5
:1052400010448860BDE8F08161684A18A0FB07013E
:105250005B41FBF727F80146B0FBF5F00201B1FB1B
:10526000F5F06FF01803584301EB800006EBC00027
:10527000B0FBF5F000F0F80002EB4002B1FBF5F0F6
:10528000584301EB800006EBC000B0FBF5F021684D
:1052900000F0070010448860D4E7000000100140CF
:1052A0000014014037B582B004461346039AA26247
:1052B000A38500252564222084F83E00A16B1C48AC
:1052C000C863A16B1B480864A16B1B48C864A06B32
:1052D00005652168A06B091DFCF704FF20680168C3
:1052E0004068019084F83C50206948B120680C3037
:1052F00050E8001F41F4807140E80012002AF5D107
:105300002068143050E8001F41F0010140E800120D
:10531000002AF5D12068143050E8001F41F0400108
:1053200040E80012002AF5D105B0002030BD000091
:10533000874F0008095000083D4F000881628285B0
:10534000C28500210164222280F83E2080F83C10B2
:105350000169002904D00168CA6842F48072CA60F9
:1053600001684A6942F001024A610068C16841F07F
:105370002001C1600020704790F83D10212901D024
:10538000022070478168B1F5805F01D1016961B188
:10539000016A4A1C0262026809785160C18C491E88
:1053A0000904090CC1840AD013E0016A0268098863
:1053B000C1F308015160016A891C0162EEE70168CE
:1053C000CA6822F08002CA600068C16841F04001EA
:1053D000C16000207047000038B52D4800680168A2
:1053E000890603D501684068009038BD29490968DD
:1053F000C906FAD5016840680090274A106801681C
:10540000264B09034FF0240420D4016821F0010148
:10541000016011684868C0F1240080B218804C60B7
:1054200011680B6843F400230B6011680A6842F0AE
:1054300001020A601228D8D1194901F1160003F0BF
:1054400023FDBDE83840002002F046B9016821F094
:105450000101016011684868C0F1240080B2188021
:105460004C6010490B6C23F400230B6411680A682C
:1054700042F001020A601228B7D1094901F13A004D
:1054800003F002FDBDE83840002002F025B900001D
:105490001C07002000100140C4080020C4000020A8
:1054A0006C090020006002400148FEF779B8000056
:1054B00060070020FEE703B401984100009850EA1D
:1054C000C12018BF04204A0D18BF40F0010040F26F
:1054D000FF72B2EB515F08BF40F00200012808BF25
:1054E000052002B070470907090E002804DB00F10F
:1054F000E02080F80014704700F00F0000F1E02079
:1055000080F8141D7047000070B5C1482DED020BE6
:105510002DED0E8B82B0119D25F000449FEDBEDB7A
:105520009FEDBFEB84423EDBA4F140511098A1F106
:105530007F6108430FD0BC48844202DC28D1109818
:1055400030B39DED100B02B0BDEC0E8B02B0BDE888
:10555000704001F029BF9DED100B53EC1D2B51EC59
:10556000100BFAF79BFF9DED100B41EC180B53EC61
:105570001E2B51EC100BFAF791FF53EC182BFAF796
:10558000E6FE41EC100B02B0BDEC0E8B02B070BD1C
:10559000012001F05DFF02B0BDEC0E8B02B0BDE852
:1055A000704001F015BFA1489FEDA18B844256DAEF
:1055B0009DED100BB4F1795F0ADA51EC100BFFF797
:1055C0007AFF042808BF01F023FF9DED100BDAE7F6
:1055D00053EC102B51EC100BFAF760FF41EC190B58
:1055E00095480621B0EE490AF0EE690A784401F0C8
:1055F000AFFD53EC192B51EC100BFAF74FFF41ECB8
:105600001A0B8E48B0EE490AF0EE690A042178447C
:1056100001F09EFD53EC192B51EC100BFAF73EFFF5
:1056200053EC182BFAF793FE41EC100B51EC1A0BCC
:1056300053EC102BFAF7A4FFCDE900019DED000B10
:1056400053EC102B9DED100B51EC100BFAF726FFCD
:105650009DED101B53EC112BFAF779FED2E09DED76
:10566000100B51EC100B02F03FF953EC182BFAF72A
:1056700012FF9FED730BCDE9000153EC102B9DED54
:10568000000B51EC100BFAF709FF41EC190B6E48B7
:105690000621B0EE490AF0EE690A784401F058FD9F
:1056A00053EC192B51EC100BFAF7F8FE41EC1B0BE5
:1056B0006648B0EE490AF0EE690A0421784401F028
:1056C00047FD53EC192B51EC100BFAF7E7FE53ECA6
:1056D000182BFAF73CFE41EC1C0B51EC190B03F0B4
:1056E00033FC41EC180B5A489FED5BABA04222DC27
:1056F00053EC1C2B51EC1B0BFAF742FFCDE90001D8
:105700009DED000B51EC180B53EC102BFAF7C6FE75
:1057100053EC182BFAF71BFE53EC1A2BFAF7BEFECC
:1057200053EC1D2BFAF7B4FE53EC1E2BFAF7B3FE25
:1057300041EC100B5FE08DED008B002000909DEDA3
:10574000000B51EC180B53EC102BFAF700FE9DEDFB
:10575000000B41EC1E0B53EC102B51EC100BFAF725
:105760009DFE53EC192BFAF796FE53EC1E2BFAF71D
:1057700007FF41EC190B53EC1C2B51EC1B0BFAF7F8
:10578000FFFE41EC1B0B53EC1A2B51EC190BFAF7F3
:1057900085FE53EC1D2BFAF77EFE41EC190B53EC02
:1057A0001A2B51EC180BFAF779FE53EC1B2BFAF776
:1057B00075FE53EC192BFAF76BFE9DED000B41ECD7
:1057C000180B53EC1A2B51EC100BFAF767FE9FEDF8
:1057D000249B53EC192BFAF75EFE41EC100B51ECB5
:1057E000180B53EC102BFAF753FE53EC192BFAF766
:1057F00052FE41EC100B002D3FF7C5AE51EC100BE3
:1058000081F0004141EC100BBDE6000000000000FB
:105810000000F03F00000000075C143326A6913C16
:10582000182D4454FB21F93F0000F07F0000E03FB9
:10583000000000000000F03F084100001641000099
:10584000000000000000E03F5A40000068400000F7
:105850003333EF3F00000000000000000000004074
:10586000182D4454FB21E93F70B59B482DED020BE8
:105870002DED068B079D25F00044A04218DC9748CB
:10588000844202DC0AD1069840B19DED060BBDECC6
:10589000068B02B0BDE8704001F086BD002DCCBF84
:1058A0009FED8F0B9FED900BBDEC068B02B070BD92
:1058B0008F48A04215DD8F48A042D8BF4FF0FF347B
:1058C00058DD9DED060B51EC100BFFF7F4FD04289D
:1058D00008BF01F09DFD9DED060BBDEC068B02B0EF
:1058E00070BD9DED060B51EC100B01F0FDFFCDE9F5
:1058F000060181489FED828BA0423CDD8248A04298
:105900001FDD00249FED82AB9DED060B53EC1A2B9F
:1059100051EC100BFAF71BFD9DED060B41EC190B3A
:1059200053EC1A2B51EC100BFAF7B8FD53EC182B73
:10593000FAF7AEFD53EC192BFAF722FECDE906017A
:1059400049E09DED060B012453EC182B51EC100B94
:10595000FAF7FDFC9DED060B41EC190B53EC182BEF
:1059600051EC100BFAF794FD53EC192BFAF708FEE3
:10597000CDE906012FE06848A0421FDD02249FED1B
:10598000689B9DED060B53EC192B51EC100BFAF7AD
:1059900085FD53EC182BFAF7DAFC9DED060B41EC74
:1059A000180B53EC192B51EC100BFAF771FD53EC5B
:1059B000182BFAF7E5FDCDE906010CE09DED060B8D
:1059C000032453EC102B9FED580B51EC100BFAF7FE
:1059D000D7FDCDE906019DED060B53EC102B51ECE4
:1059E000100BFAF75BFD41EC180B53EC182BFAF790
:1059F00055FD41EC190B4E480621B0EE490AF0EE78
:105A0000690A784401F0A4FB53EC182B51EC100BFD
:105A1000FAF744FD41EC180B4648B0EE490AF0EEA7
:105A2000690A0521784401F093FB53EC192B51ECE2
:105A3000100BFAF733FD41EC100B51EC180B53EC43
:105A4000102B002C0EDAFAF782FC9DED061B53ECAE
:105A5000112BFAF723FD9DED061B53EC112BFAF7E2
:105A60001AFD35E0FAF773FC9DED061B53EC112B84
:105A7000FAF714FD41EC100B2F48784400EBC400FA
:105A800090ED001B51EC100B53EC112BFAF700FDBD
:105A90009DED061B53EC112BFAF7FAFC41EC100BB1
:105AA0002648784400EBC40090ED001B51EC100B2D
:105AB00053EC112BFAF7EFFC41EC100B002DA2BFB9
:105AC000BDEC068B02B070BD51EC100B81F00041B3
:105AD00041EC100B01E70000000010440000F07FD3
